:100000000C9417040C9469040C9469040C9469040E
:100010000C9469040C9469040C9469040C946904AC
:100020000C9469040C9469040C948B240C9447245C
:100030000C94832B0C9469040C9469040C9469044B
:100040000C9469040C9469040C9469040C9469047C
:100050000C9469040C945F2B0C9469040C9469044F
:100060000C9469040C9469040C9469040C9469045C
:100070000C9469040C9469040C9469040C9469044C
:100080000C9469040C9469040C9469040C9469043C
:100090000C9469040C9469040C9469040C9469042C
:1000A0000C9469040C9469040C94690441545A003A
:1000B00041542B424C45504F5745524C4556454CA8
:1000C0003D2D31320041542B424C45484944454E68
:1000D0003D310041542B4741504445564E414D451A
:1000E0003D4C6174696E3437424C450041542B4796
:1000F0004150494E54455256414C533D31302C33BA
:10010000302C2C004154453D300005010902A1016D
:1001100085020901A100050919012905150025011C
:10012000950575018102950175038101050109306D
:1001300009311581257F95027508810609381581D9
:10014000257F950175088106050C0A380215812561
:100150007F950175088106C0C005010980A1018550
:10016000031A81002A8300160100260300950175F9
:10017000108100C0050C0901A10185041A01002AA3
:100180009C02160100269C02950175108100C00694
:1001900060FF0961A1010962150026FF0095207525
:1001A0000881020963150026FF0095207508910259
:1001B000C005010906A101050719E029E715002579
:1001C00001950875018102950175088101050719DE
:1001D0000029FF150026FF00950675088100050817
:1001E0001901290595057501910295017503910184
:1001F000C00001010101010101010102020202022C
:1002000002020202030303030303030304040404BE
:100210000404040505050505060606060607070786
:10022000070708080808090909090A0A0A0B0B0B3D
:100230000C0C0C0D0D0D0E0E0E0F0F0F10101111DA
:10024000111212131314141515161617171818195E
:10025000191A1A1B1B1C1D1D1E1E1F2020212222C5
:10026000232424252626272829292A2B2C2D2D2E08
:100270002F30313232333435363738393A3B3C3D22
:100280003E3F404142434445464748494A4C4D4E13
:100290004F50515354555658595A5B5D5E5F6162D9
:1002A00064656668696B6C6D6F7072737577787A68
:1002B0007B7D7E8082838587888A8C8E8F919395C3
:1002C00096989A9C9EA0A2A3A5A7A9ABADAFB1B3E7
:1002D000B5B7BABCBEC0C2C4C6C9CBCDCFD1D4D6C7
:1002E000D8DBDDDFE2E4E7E9EBEEF0F3F5F8FAFD69
:1002F000FFFFAA7F55402223252628292A2C2D2FAF
:100300003032333536383A3B3D3E4042434547492B
:100310004A4C4E5051535557595A5C5E6062646660
:1003200068696B6D6F71737577797B7D7F8183856C
:1003300087898A8C8E90929496989A9C9E9FA1A36E
:10034000A5A7A8AAACAEAFB1B3B4B6B8B9BBBCBE92
:10035000BFC1C2C3C5C6C7C9CACBCCCDCED0D1D20E
:10036000D2D3D4D5D6D7D7D8D9D9DADADBDBDBDC10
:10037000DCDCDCDCDDDDDDDDDCDCDCDCDCDBDBDBBC
:10038000DADAD9D9D8D7D7D6D5D4D3D2D2D1D0CE1C
:10039000CDCCCBCAC9C7C6C5C3C2C1BFBEBCBBB921
:1003A000B8B6B4B3B1AFAEACAAA8A7A5A3A19F9E9F
:1003B0009C9A98969492908E8C8A89878583817F67
:1003C0007D7B79777573716F6D6B69686664626048
:1003D0005E5C5A5957555351504E4C4A4947454314
:1003E00042403E3D3B3A3836353332302F2D2C2AB1
:1003F000292826252322290014001A0008001500A8
:1004000017001C0018000C00120013002A003942CB
:1004100004001600070009000A000B000D000E0082
:100420000F0033002800E1001D001B00060019002A
:100430000500110010003600370002514C00E000AA
:10044000E300E2004B004E002C0001511E001F0093
:10045000200021000000DC5C1E001F0020002100A5
:100460002200230024002500260027002E00394208
:1004700004001600070009000A000B000D000E0022
:100480000F0033002800E1001D001B0006001900CA
:1004900005001100100036003700C25C4C00E0007F
:1004A000E300E2004B004E002C000151C25CC35C33
:1004B000B300B200000053003A003B003C003D0096
:1004C0003E003F0040004100420043002A00394204
:1004D00004001600070009000A000B000D000E00C2
:1004E0000F0033002800E1001D001B00060019006A
:1004F00005001100100036003700C25C4C00E0001F
:10050000E300E2004B004E002C000151C25CC35CD2
:10051000B300B20000000000000000000000000076
:1005200000000000000000000000000000000000CB
:1005300000000000000000000000000000000000BB
:1005400000000000000000000000000000000000AB
:10055000000000000000000000000000000000009B
:10056000000000000000000000000000000000008B
:10057000000000000000000000000000000000007B
:10058000000000000000000000000000000000006B
:10059000000000000000000000000000000000005B
:1005A000000000000000000000000000000000004B
:1005B0000000000000000001010101010100010133
:1005C0000101000000000000000000000000000029
:1005D000010001000101010101010101010101010D
:1005E00001010101010101010101010101010101FB
:1005F00001000000010100000000000000000000F8
:1006000000000000000000000000000000000000EA
:1006100000010101010000000000000000002A2B81
:1006200028000000000000000000000000000000A2
:100630000029000000002C1E34202122243426270B
:10064000252E362D3738271E1F202122232425262C
:100650003333362E37381F0405060708090A0B0CFA
:100660000D0E0F101112131415161718191A1B1C42
:100670001D2F3130232D350405060708090A0B0C00
:100680000D0E0F101112131415161718191A1B1C22
:100690001D2F3130354C00047F3F1F64321464320B
:1006A00014783C1E1E140A050401EC00D300C5009A
:1006B000B000AC00070605040100202223242521F8
:1006C00041542B474150474554434F4E4E004154EF
:1006D0002B4556454E54454E41424C453D307832AF
:1006E0000041542B4556454E54454E41424C453DE4
:1006F0003078310009025B00030100A0FA09040010
:10070000000103010100092111010001224000073D
:1007100005810308000A0904010002030000000922
:100720002111010001222200070582032000010798
:100730000503032000010904020001030000000971
:1007400021110100012285000705840320000A12FF
:1007500001100100000008636C726C0100010203CB
:100760000104033000000016034C006100740069AE
:10077000006E003400370042004C00450000001AB3
:10078000036C006100740069006E0063006F006D0F
:10079000007000610073007300000004030904414D
:1007A000542B424C454849444D4F555345425554AE
:1007B000544F4E3D0041542B424C454849444D4F07
:1007C0005553454D4F56453D25642C25642C2564D5
:1007D0002C25640041542B424C45484944434F4E1C
:1007E00054524F4C4B45593D3078253034780041B8
:1007F000542B424C454B4559424F415244434F4480
:10080000453D253032782D30302D253032782D255C
:100810003032782D253032782D253032782D253024
:1008200032782D25303278004F4B00003E241124C1
:100830001FBECFEFDAE0DEBFCDBF04B603FE27C098
:100840008091110490911204A0911304B0911404AA
:100850008730904BA740B04BD1F410921104109206
:100860001204109213041092140414BE84B7877FEC
:1008700084BF0FB6F894A89580916000886180933A
:100880006000109260000FBEE0E0F8E3099511E00F
:10089000A0E0B1E0E8EAFFE502C005900D92A639BC
:1008A000B107D9F724E0A6E9B1E001C01D92A1315A
:1008B000B207E1F714E0C7E1D4E004C02197FE01DC
:1008C0000E94DC2BC631D107C9F70E9463250C9426
:1008D000872F0C940000662371F0FC01680F792FBC
:1008E000711DE617F70738F41EBC0DB407FEFDCFE7
:1008F0008EB58193F6CF0895E8EDF0E080818E7F8C
:1009000080831092E2001092DA001092E100A0EED3
:10091000B0E08C9181608C9380818F77808319BC4B
:10092000A7EDB0E08C918E7F8C9380818F7E808349
:100930001092500208952091E4003091E50095E670
:10094000A9012091EC00822F817020FF06C08091C8
:10095000E80080FF06C080E008952091E80022FDB5
:100960001AC080910C04882389F0853089F0809129
:10097000EB0085FD0FC02091E4003091E5004217A7
:100980005307F9F29150E1F684E0089582E008956A
:1009900083E0089581E00895EF92FF920F931F93F3
:1009A000CF937C018B010E949B04C82F811117C03B
:1009B0008091E80085FD0BC08091E8008E778093E0
:1009C000E8000E949B04882399F3C82F08C0F70110
:1009D00081917F018093F1000150110949F78C2F1B
:1009E000CF911F910F91FF90EF900895CF93FC014D
:1009F00080910C04843001F5C091E900CF70209102
:100A0000EC00922F917020FD90E8C92B82E080933A
:100A1000E9008091E80080FF0CC050E040E060E217
:100A200070E0CF010E94CC048091E8008E77809323
:100A3000E800CF70C093E900CF91089580915E02E5
:100A400087FF13C08091E80082FF06C08091E80014
:100A50008B778093E80004C080910C048111F2CF61
:100A6000089580910C048823D9F38091E80080FFD9
:100A7000F8CF8091E8008E77ECCF982F9093E90023
:100A8000242F762F50E0891731F07091EC002091DF
:100A9000ED005091F00021FD07C09F5F973071F786
:100AA0008093E90081E008953091EB003E7F309320
:100AB000EB003091ED003D7F3093ED003091EB0085
:100AC00031603093EB007093EC002093ED00509375
:100AD000F0002091EE0027FDE0CF80E00895CF9256
:100AE000DF92EF92FF920F931F93CF93DF93C8EDA6
:100AF000D0E088818F7E8883E7EDF0E0808181609F
:100B0000808384E082BF81E08093500288818E7F61
:100B1000888302EE10E0F80110821092DA0081EE74
:100B2000C82ED12CF601108288818F778883888126
:100B30008068888388818F7D888319BC10920C041B
:100B400010925D0210925C0210925B0290EEE92E10
:100B5000F12CF70180818B7F80838881816088837D
:100B600042E060E080E00E943D05F60180818E7FDA
:100B70008083F801808181608083808188608083A8
:100B8000F70180818E7F8083888180618883DF91F7
:100B9000CF911F910F91FF90EF90DF90CF9008952C
:100BA000FC01809164029091650286179707A0F07E
:100BB0006115710529F49091E8009E779093E80003
:100BC00090E06115710551F4911108C08091E80021
:100BD00082FF34C080E00895BC01F2CF80910C0404
:100BE0008823C1F18530C1F18091E80083FD30C0D8
:100BF0008091E80082FDEACF8091E80080FFE1CF9C
:100C00008091F3002091F200382F6115710519F0E1
:100C10002830310558F091E02830310509F090E096
:100C20002091E8002E772093E800CBCF819180932C
:100C3000F100615071092F5F3F4FE7CF80910C04A5
:100C4000882341F0853041F08091E80083FFBECFDA
:100C500081E0089582E0089583E00895809117016E
:100C6000811107C080910C04843011F083E0089555
:100C700082E00895089580915202089590912C0287
:100C8000803F41F480912D0287FD10922D0299231F
:100C900071F00895813F29F480912D021816ACF36C
:100CA000F6CF823F81F497FFF2CF10922C02809111
:100CB0002D0290912E02892B90912F02892B49F7BA
:100CC000109230020895833F19F4191674F3DFCFA0
:100CD000893F39F480912E021816CCF610922E021C
:100CE000D6CF8A3F29F480912E0287FFD0CFF6CF4E
:100CF0008B3F39F480912F0287FFC9CF10922F02CA
:100D0000C6CF8C3F29F480912F021816BCF3BFCFB9
:100D1000843F31F480912B028E7F80932B02B7CFDA
:100D2000853F21F480912B028D7FF7CF863F21F400
:100D300080912B028B7FF1CF873F21F480912B0292
:100D4000877FEBCF883F21F480912B028F7EE5CF08
:100D50008D3F31F4809116028E7F8093160297CFDB
:100D60008E3F21F4809116028D7FF7CF8F3F09F0DF
:100D70008ECF809116028B7FF0CF8091160280FD7E
:100D800016C081FD16C082FD16C0809130028823F6
:100D9000A1F0883280F428E0829FC001112468E22B
:100DA00070E00E94C82B862F672B39F0089582E0EF
:100DB000089584E0089588E0089581E00895809181
:100DC000160280FD14C081FD14C082FD16C0809102
:100DD0003002882381F0843180F422E3829FC001B5
:100DE000112464E170E00E94C82B862F08958CE0E6
:100DF000089589E1089585E0089582E30895803F8C
:100E000031F40E94DF06819580932D020895813F81
:100E100019F40E94DF06F8CF823F31F40E94DF060A
:100E2000819580932C020895833F19F40E94DF0678
:100E3000F8CF893F29F40E94BD0680932E020895C1
:100E40008A3F21F40E94BD068195F7CF8B3F31F494
:100E50000E94BD06819580932F0208958C3F19F45E
:100E60000E94BD06F8CF843F31F480912B0281604F
:100E700080932B020895853F21F480912B0282609C
:100E8000F7CF863F21F480912B028460F1CF873F1A
:100E900021F480912B028860EBCF883F21F4809170
:100EA0002B028061E5CF8D3F31F480911602816085
:100EB0008093160208958E3F21F48091160282607D
:100EC000F7CF8F3FB9F7809116028460F1CF87E7A3
:100ED00097E7909301088093000888E19AE00FB6A5
:100EE000F894A895809360000FBE90936000FFCFA8
:100EF000CF92DF92EF92FF920F931F932FB7F89448
:100F000040914C0250914D0260914E0270914F02FF
:100F10002FBF6A017B01EE24FF248C0130E020E02A
:100F2000C016D106E206F30650F0481B590BCA0161
:100F30001F910F91FF90EF90DF90CF900895415057
:100F40005109F3CF2FB7F89480914C0290914D0244
:100F5000A0914E02B0914F022FBF0895E09122025E
:100F6000F0912302309749F082E080932A020480B6
:100F7000F581E02D8AE292E009950E94A207909304
:100F800032028093310208958091110281111092F2
:100F9000110208958091100290910F02892B909177
:100FA0000E02892B8093960190911102992391F062
:100FB000892B8093960120E088E991E0FC01319132
:100FC000CF0131112F5FF1E08E399F07B9F7211161
:100FD0000E94C407E0912202F0912302309731F081
:100FE0000280F381E02D86E991E009940895E8E913
:100FF000F1E09191891303C0DF0111971C9291E0F8
:10100000EE39F907B1F70895A8E9B1E0EFEF90E004
:101010002D91821751F0EF3F19F4211101C0E92FF2
:101020009F5F9630A9F7EF3F09F408950E2E000C4C
:10103000FF0BEA56FE4F828308952CE0929F800DAD
:101040001124982F977086958695869525E0829F26
:10105000F0011124E151FE4F50E040E080E0219189
:1010600030E0092E02C0369527950A94E2F72170E8
:101070003327042E01C0220F0A94EAF7822B4F5F18
:101080005F4F4530510559F708952CE0929F800D30
:101090001124982F977041E001C0440F9A95EAF708
:1010A00086958695869595E0899FF0011124E151FA
:1010B000FE4F90E080E070E05191DF0111979B01BD
:1010C000082E02C0369527950A94E2F721702195E3
:1010D0002527242325272C9301968530910561F738
:1010E00008958091EE019091BD01981301C008957B
:1010F0008F5F8770FACF882341F08095909110021E
:101100008923809310020C94CA070895882339F02C
:1011100090911002982B909310020C94CA07089596
:101120002091B1013091B2012817390771F09093E5
:10113000B2018093B101E0912202F0912302309735
:1011400021F00084F185E02D099408952091AF01EC
:101150003091B0012817390771F09093B001809356
:10116000AF01E0912202F0912302309721F0068036
:10117000F781E02D0994089510920F0210920E024B
:101180000E94CA0786E0EAE2F2E0DF011D928A953A
:10119000E9F710923002109216020E94AE0790E01A
:1011A00080E00E94A60890E080E00C949008609394
:1011B0000D0470930E0480930F04909310040C940C
:1011C000BC080F931F9360910D0470910E048091E1
:1011D0000F04909110048B019C01067011272227A7
:1011E0003327063011052105310529F468601F9168
:1011F0000F910C94D708677FFACF0F931F9341E0AC
:1012000050E060E070E004C0440F551F661F771F78
:101210008A95D2F7CB01BA0160957095809590952B
:1012200000910D0410910E0420910F0430911004D0
:1012300060237123822393231F910F910C94D7086D
:1012400090910D028095892380930D02282F27709D
:1012500071F4282F082E000C330B9217130639F067
:101260008595859585950E94FD0810920D0208953B
:101270000F931F9341E050E060E070E004C0440F22
:10128000551F661F771F8A95D2F780910D049091A4
:101290000E04A0910F04B09110048A019B01082B49
:1012A000192B2A2B3B2BC901B8011F910F910C94CC
:1012B000D7086093120270931302809314029093E4
:1012C00015020C94BC08E0912202F09123023097A1
:1012D00021F00190F081E02D099480E008958823A9
:1012E00009F459C0823871F40E94630981FF53C028
:1012F00089E30E9404080E94CA0789E30E94F70755
:101300000C94CA07833859F40E94630980FF43C0D4
:1013100083E50E9404080E94CA0783E5EFCF843862
:1013200059F40E94630982FF36C087E40E940408D2
:101330000E94CA0787E4E2CF9CEF980F913AF0F23F
:1013400090E2980F983088F4877021E030E0A9018E
:1013500002C0440F551F8A95E2F7CA01809590910B
:101360001002892380931002CBCF9BE5980F933016
:1013700020F490E080E00C94A60898E5980F97314F
:1013800020F490E080E00C949008803F20F00E94D0
:101390003E060C94AE070895FA01811101C0FB01CD
:1013A000099480913F02982F9E7F29F4817082607A
:1013B00080933F0208958A34E8F381708864F8CFFF
:1013C000AF92BF92DF92EF92FF920F931F93CF9352
:1013D000DF93082F162FE901E42FF0E0EF50FE4FC6
:1013E000611110C0E4915E2F4E2F4983E8835A8328
:1013F000DF91CF911F910F91FF90EF90DF90BF9001
:10140000AF900895E62EF12C4491D42EE42FF0E015
:1014100026E0829FC00111242FEF30E0B9010E9425
:10142000B42B802F90E0880F991F55E5569FD0016F
:10143000579FB00D11248A1B9B0B982F990F890F72
:101440005901AE18BF08AE9ED001AF9EB00DBE9E32
:10145000B00D11245B2F189F80011124012F11273B
:101460005901A01AB10AAE9E8001AF9E100DBE9E1A
:10147000100D11245901A81AB108AE9CC001AF9CEF
:10148000900DBE9C900D1124892F9927281B390B94
:101490002E9FC0012F9F900D3E9F900D1124E92F8C
:1014A00062307105A1F050F46115710509F49DCF0A
:1014B0006130710581F0EB2F512F97CF64307105AA
:1014C00069F080F06630710509F48FCFF4CFE42F16
:1014D0004B2F592F8ACFE42F412F87CFEB2F542F3B
:1014E000492F83CF4B2F5D2DE12F7FCF90911F028E
:1014F00092FF06C0282F28712830F9F4877F846076
:1015000093FF06C0282F28712831F1F4877E84616B
:101510002091200220FF06C0382F38713830D9F4CE
:10152000877F816021FF06C0282F28712831D1F4E0
:10153000877E816194FD877E0895282F2471243051
:10154000F9F68B7F8860DCCF282F2471243101F7D6
:101550008B7E8861DDCF382F3171313019F78E7F66
:101560008860E0CF282F2171213121F78E7E88619C
:10157000E1CFEF92FF920F931F93CF93DF93EC0194
:101580008B010E94A2077C01669912C082E08A95B5
:10159000F1F700C0C7010E94780780179107A0F3F8
:1015A00080E0DF91CF911F910F91FF90EF90089510
:1015B000809166028CBD809167028DBD2C981EBC07
:1015C00000000DB407FEFDCF8EB588838E3F78F006
:1015D0002C9A82E48A95F1F700C02C98C7010E94EA
:1015E00078078017910758F380E02C9ADACF63E0F0
:1015F000CE0101960E946B046B816F77613120F4FC
:10160000CE0104960E946B0481E0EFCF1F93CF932D
:10161000DF93CDB7DEB764970FB6F894DEBF0FBE89
:10162000CDBF182FE0910B0480910A04E81719F13F
:10163000669B2BC066E970E0CE0101960E94B90A54
:101640008823C9F08C8187FD0CC080910B04909198
:101650000A04891781F090E00196817099278093A0
:101660000B04112341F090910B0480910A04981708
:1016700011F06699DFCF64960FB6F894DEBF0FBE07
:10168000CDBFDF91CF911F910895F0E0EE0FFF1FC6
:10169000EA5FFB4F808191810E9478078D329140F3
:1016A00050F380910B0490910A04891721F390E084
:1016B00001968170992780930B04DDCFEF92FF9202
:1016C0000F931F93CF93DF93EC018B018091660200
:1016D0008CBD809167028DBD2C980E94A2077C0171
:1016E00088818EBD00000DB407FEFDCF8EB58E3F04
:1016F000B9F42C9A82E48A95F1F700C02C98C701BE
:101700000E9478078017910758F380E02C9ADF91A8
:10171000CF911F910F91FF90EF90089581E0F6CF48
:10172000FE0131968B818F778D5F8E0F9F2F911DDC
:10173000E817F90798F721912EBD0DB407FEFDCFEC
:10174000F7CF5F926F927F928F929F92AF92BF92EC
:10175000CF92DF92EF92FF920F931F93CF93DF937D
:10176000CDB7DEB7A8970FB6F894DEBF0FBECDBFDA
:101770008C017B016A014901FC0101900020E9F71D
:10178000CF0101975C01672B61F090910A04809171
:101790000B04981721F081E00E94060BF6CFF701A9
:1017A000108240E1742E5AE0652E60E9562EA501A4
:1017B000401B510B41315105C4F07D8A1E8A6F8A4E
:1017C000588EF801DE015996872D01900D928A9569
:1017D000E1F7B401CE0145960E945E0B811102C073
:1017E00010E03AC0005F1F4FE2CF80E18D8B1E8A70
:1017F0008AE08F8B842F8F77888F5527B801CE0191
:1018000049960E94812CB401CE0145960E945E0B40
:10181000182F882329F3E114F104A9F50E94A207E7
:101820007C0180910A0490E09C012F5F3F4F217062
:10183000332740910B04421304C080E00E94060B42
:10184000F0CF880F991FFC01EA5FFB4FF182E08225
:1018500020930A040E94A207812FA8960FB6F8943D
:10186000DEBF0FBECDBFDF91CF911F910F91FF90D3
:10187000EF90DF90CF90BF90AF909F908F907F9030
:101880006F905F9008955701AC0CBD1C87016CE20E
:1018900071E0CE0101960E94B90A882309F4A0CF15
:1018A0008981803219F0F70110829ACF8C818F776D
:1018B000CA2CC01A8C1508F4C82ECC2051F0D12C9B
:1018C000A601BE016B5F7F4FC8010E94812C0C0DE9
:1018D0001D1D8C8187FDDBCFF8011082015011099D
:1018E000E016F10630F4F80180818A30A9F38D30DA
:1018F00099F36AE070E0C7010E94952C009721F0EF
:101900007C01FFEFEF1AFF0A68E278E0C7010E944E
:10191000532C11E0892B09F49FCF62CF8F929F92B5
:10192000AF92BF92CF92DF92EF92FF920F931F93ED
:10193000CF93DF93CDB7DEB77C015B014A01CDB613
:10194000DEB60E94632C01962DB73EB7281B390BDB
:101950000FB6F8943EBF0FBE2DBF0DB71EB70F5F79
:101960001F4FB701C8010E945C2C26E930E0A4019A
:10197000B501C8010E94A10B0FB6F894DEBE0FBEE0
:10198000CDBEDF91CF911F910F91FF90EF90DF902F
:10199000CF90BF90AF909F908F900895CF93DF939B
:1019A00000D00F92CDB7DEB790910C04943011F5B2
:1019B00089837B836A839093E9008FEF9091E8009D
:1019C000815095FD06C09AE69A95F1F700C0811105
:1019D000F5CF8091E80085FF0DC050E040E063E066
:1019E00070E0CE0101960E94CC048091E8008E77D1
:1019F0008093E8000F900F900F90DF91CF910895A2
:101A0000BC016058710983E00C94CE0C882309F462
:101A10007BC08238B9F40E94630981FD75C089E3F7
:101A20000E9404080E94CA072FEF80E792E021502D
:101A300080409040E1F700C0000089E30E94F70772
:101A40000C94CA078338A1F40E94630980FD5CC02E
:101A500083E50E9404080E94CA072FEF80E792E006
:101A6000215080409040E1F700C0000083E5E6CFC0
:101A70008438A1F40E94630982FD46C087E40E9475
:101A800004080E94CA072FEF80E792E021508040AF
:101A90009040E1F700C0000087E4D0CF9CEF980FA2
:101AA000913A18F40E940408CBCF90E2980F983036
:101AB00068F4877021E030E001C0220F8A95EAF7D0
:101AC00080911002822B80931002BACFEBE5E80FD1
:101AD000E33038F4F0E0EA5BFE4F808190E00C9454
:101AE000A608E8E5E80FE73148F4F0E0EE0FFF1F45
:101AF000E75BFE4F808191810C949008803F20F03D
:101B00000E94FF060C94AE070895CF93C82F0E9441
:101B1000060DC93349F42FEF83EF91E02150804047
:101B20009040E1F700C000008C2FCF910C946F091A
:101B30000F931F93CF93DF93C62FD42F022FFC0157
:101B400082818823A1F06093B3010E94A207909341
:101B5000AE018093AD01C77081E001C0880FCA95C6
:101B6000EAF7DF91CF911F910F910C9486081091A5
:101B7000B301161335C08091AD019091AE010E9462
:101B800078078A3F910560F5C0E2CD0F1D17B9F0C7
:101B900080E2810F883040F4177081E001C0880F27
:101BA0001A95EAF70E947B08C83048F481E09D2F1F
:101BB000977001C0880F9A95EAF70E948608802FD7
:101BC0000E94850DC83098F4D77081E001C0880F5D
:101BD000DA95EAF7DF91CF911F910F910C947B0872
:101BE000C77081E001C0880FCA95EAF7F3CFDF9193
:101BF000CF911F910F91089580913F0280FD12C0F7
:101C00001092A5011092A4011092A6011092A801B1
:101C10001092A7011092A9011092AB011092AA0193
:101C20001092AC01279A35B13F7725B120684FB7A4
:101C3000F89484EA91E0FC015191CF0168E025B964
:101C400057FF35B9550F000000C035B9000000C07E
:101C500000C000C000C000C000C000C000C000C084
:101C600000C000C000C000C000C000C06A9539F7C5
:101C7000F1E08D3A9F07F9F64FBF55E85A95F1F715
:101C800000000895EF92FF920F931F93CF93DF937D
:101C90008C01C4EAD1E0F12CE12CF801948160912F
:101CA000410280914002E114F104F9F49923F9F022
:101CB0009E01409142020E94E009FFEFEF1AFF0AE5
:101CC000239683E0E816F10441F70E94FC0DF80129
:101CD000848190E00196817099278483DF91CF9170
:101CE0001F910F91FF90EF900895992309F39E01A2
:101CF00040E0E1CFEF92FF921F93CF93DF93EC018F
:101D000084EAE82E81E0F82E10E08C819701409162
:101D1000420260914102810F0E94E0091B5A83E058
:101D2000E80EF11C1F3F89F70E94FC0D9A818C81FF
:101D300090FF08C08F5F8C83DF91CF911F91FF9040
:101D4000EF9008958150F7CFBF92CF92DF92EF923C
:101D5000FF920F931F93CF93DF93FC018281DD24C9
:101D6000DA9480FD02C0DD24D39404EA11E0D0E0CF
:101D7000C0E023E0B22EF80111821082128294E0BA
:101D8000E92EF12CC12C8091A1018C0D84300CF432
:101D90003DC06B2D0E94A62B892F082E000C990B9D
:101DA0008C179D0791F4809142028E9DA0018F9D1A
:101DB000500D11245595479555954795980160917B
:101DC0004102809140020E94E009CD0CF1E0EF1A3F
:101DD000F108C9F621960D5F1F4FC330D10559F6A2
:101DE0000E94FC0D8091A10191E0D91215C08111D2
:101DF00011C082E08093A101DF91CF911F910F91DB
:101E0000FF90EF90DF90CF90BF90089587FFC5CFF0
:101E10008D5FC3CF8150EECF90E00196BE010E944E
:101E2000C82BE8CF0F931F93CF93DF931092A50198
:101E30001092A4011092A6011092A8011092A7017D
:101E40001092A9011092AB011092AA011092AC015C
:101E5000C4EAD1E010E000E08091A201082E000C5D
:101E6000990B081719078CF180910C01082E000CB2
:101E7000990B801791074CF19E01409142026091AD
:101E80004102809140020E94E0090F5F1F4F23969C
:101E90000330110509F70E94FC0D80910B01909110
:101EA000A201980F9093A20120910C01280F20937A
:101EB0000C01121614F492301CF0819580930B01E2
:101EC000DF91CF911F910F910895198218821A8284
:101ED000DCCFEF92FF920F931F93CF93DF93EC0130
:101EE0008C819D810196817099279D838C8384EAE2
:101EF000E82E81E0F82E10E005E5812F86952C81F3
:101F00003D81820F932F911D817097014091420274
:101F100060914102809F802D11240E94E0091F5F83
:101F200083E0E80EF11C133041F7DF91CF911F9150
:101F30000F91FF90EF900C94FC0D90913F0290FF59
:101F400014C08093A5016093A4014093A6018093DF
:101F5000A8016093A7014093A9018093AB0160930E
:101F6000AA014093AC010C94FC0D08950F931F93AC
:101F7000CF93DF9300D00F92CDB7DEB78C01809165
:101F8000A30181110AC09E012F5F3F4F4FEF6FEFFA
:101F90000E94E0098A818093A301F8016481613085
:101FA00069F08091A30140E0662361F040E0623077
:101FB00011F44091A30180E060E004C06091A301AE
:101FC00040E080E00E949D0FF801848190E001963E
:101FD00063E070E00E94C82B84830F900F900F90F5
:101FE000DF91CF911F910F910895CF93DF9300D090
:101FF0000F92CDB7DEB790913F0290FF0AC09E01CD
:102000002F5F3F4F0E94E0094B8169818A810E94C6
:102010009D0F0F900F900F90DF91CF910895CF9368
:10202000DF93EC01EC81F0E0EA50FD4F4491EFE3E7
:10203000F2E0628181810E94F50F8C818F5F8C8339
:10204000DF91CF910895CF93DF93EC01EFE3F2E0BE
:10205000438162818C810E94F50F8C818F5F8C831C
:10206000DF91CF9108954F925F927F928F929F92CE
:10207000AF92BF92CF92DF92EF92FF920F931F9396
:10208000CF93DF9397E7492E91E0592E30E020E07F
:10209000C0E041E050E06FE1862E62E0962ED20172
:1020A0008D912D01E82FE295EF70F0E061A18F7026
:1020B0008A0102C0000F111F8A95E2F7C801962F0E
:1020C000982B91A392A18095892382A310E51A955C
:1020D000F1F78A01022E02C0000F111F0A94E2F7E5
:1020E0005801A094B094E7E1F2E083E8E82E81E0A3
:1020F000F82ED0E06F0160817181D7017D907D0164
:10210000872D82958F7090E0DC0190968C9190E005
:10211000B72DBF7002C095958795BA95E2F780FDFF
:1021200062C0CB01802B912B918380833296D601A4
:102130008D919C916817790709F0D1E08E169F0662
:10214000C9F6F20131978081E82FE295EF70F0E057
:1021500011A18F70BA0101C0660F8A95EAF7962F18
:102160009095912391A382A1862B82A3CD2B2F5FE3
:102170003F4F2C30310509F092CFCC23C1F181E0E3
:102180008093A0010E94A20790939F0180939E01DB
:1021900080919E0190919F010E947807069758F1C7
:1021A0008091170290911802909345028093440207
:1021B0008091190290911A029093470280934602EF
:1021C00080911B0290911C029093490280934802D7
:1021D00080911D0290911E0290934B0280934A02BF
:1021E0001092A00108C0CB018A219B219DCF809134
:1021F000A0018111CDCF8C2FDF91CF911F910F9135
:10220000FF90EF90DF90CF90BF90AF909F908F9016
:102210007F905F904F9008958F929F92AF92BF9260
:10222000CF92DF92EF92FF920F931F93CF93DF93A2
:10223000CDB7DEB7CA57D1090FB6F894DEBF0FBECF
:10224000CDBF6C0190910A0480910B04981339C0A2
:102250008091050490910404891799F12AE0289F40
:10226000C00111248C589D4FFC01DE01AF58BF4FB7
:1022700001900D922A95E1F7FC01E080158106811D
:10228000F780908481840E94A207909373028093C8
:102290007202F1E0EF1609F46BC0EE2031F122E09A
:1022A000E21609F481C08091050490910404891715
:1022B00041F090E0019668E270E00E94C82B8093A4
:1022C0000504C658DF4F0FB6F894DEBF0FBECDBF72
:1022D000DF91CF911F910F91FF90EF90DF90CF9002
:1022E000BF90AF909F908F9008956FEE77E0CE01F2
:1022F00001965C010E945C2C1F928F921F929F920C
:102300001F92FF921F920F931F921F93E6968FAD1D
:10231000E6971F928F93E5968FADE5971F928F9367
:10232000BF92AF921F9280E38F938E010F5B1F4F7E
:102330001F930F930E94A02C960150E040E070E0A4
:1023400060E0C8010E94A10B0FB6F894DEBF0FBE7B
:10235000CDBF8111A8CFFFE729EA33E0F15020403B
:102360003040E1F700C0000081E00E94060BA9CFD9
:1023700064ED77E08E010F5F1F4FC8010E945C2C57
:10238000E6968FADE6978F93E5968FADE5978F93A1
:102390001F930F931F9280E38F93005C1F4F1F9337
:1023A0000F930E94A02CC8CF65EB77E0CE01019679
:1023B0005C010E945C2C802F002E000C990B9F93D7
:1023C0000F93812F012E000C990B9F931F93E6967C
:1023D0008FADE697282F082E000C330B3F938F9379
:1023E000E5968FADE597282F082E000C330B3F9311
:1023F0008F93BF92AF921F9280E38F938E010F5BFA
:102400001F4F1F930F930E94A02C960150E040E0B5
:1024100070E060E0C8010E94A10B0FB6F894DEBF27
:102420000FBECDBF882309F496CF6FE977E0C801CE
:102430000E945C2CF0FE05C069E171E0C8010E94B9
:102440008A2CF1FE05C06BE171E0C8010E948A2C64
:102450006DE171E0F2FC04C0F11005C06FE171E0C4
:10246000C8010E948A2C960150E040E070E060E0D4
:10247000C8010E94A10B6DCFEF92FF920F931F93A3
:10248000CF938C010E942E06C82F8DEF8C0F8230C7
:1024900058F588E2E82EF12CE09104048E2F90E0AC
:1024A0000196B7010E94C82B90910504981305C0AE
:1024B00086E990E00E940C11EFCF9AE0E99FF001CD
:1024C0001124EC58FD4F91E0908314830383809393
:1024D0000404C43059F4B80184E0CF911F910F91E6
:1024E000FF90EF900C94CE0CC230A9F3CF911F91C6
:1024F0000F91FF90EF900895AF92BF92CF92DF922D
:10250000EF92FF920F931F93CF93DF93EC010E9402
:102510002E06182F8DEF810F823008F04AC00981F6
:10252000FD80EC80BB80AA8088E2C82ED12CE0918F
:1025300004048E2F90E00196B6010E94C82B909162
:102540000504981305C086E990E00E940C11EFCFB6
:102550009AE0E99FF0011124EC58FD4F92E090833E
:10256000A382B482E582F682078380930404143048
:1025700011F584E08093E9008FEF9091E80081509D
:1025800095FD06C09AE69A95F1F700C08111F5CF46
:102590008091E80085FF0FC050E040E066E070E009
:1025A000CE010E94CC048091E8008E778093E800F1
:1025B00002C01230F1F2DF91CF911F910F91FF9085
:1025C000EF90DF90CF90BF90AF900895CF92DF92C1
:1025D000EF92FF920F931F93CF93DF93EC010E9432
:1025E0002E06182F8DEF810F823008F05AC0088117
:1025F0000E94A2077C0188E2C82ED12CE09104043D
:102600008E2F90E00196B6010E94C82B9091050490
:10261000981305C086E990E00E940C11EFCF6A8103
:102620005B814C813D812E819F817AE0E79FF001A3
:102630001124EC58FD4F1082F282E18203836483FF
:102640005583468337832087918780930404143011
:1026500051F581E08093E9008FEF9091E80081507F
:1026600095FD06C09AE69A95F1F700C08111F5CF65
:102670008091E80085FF17C050E040E068E070E01E
:10268000CE010E94CC048091E8008E778093E80010
:1026900088E0FE01A3E5B2E001900D928A95E1F792
:1026A00002C01230B1F2DF91CF911F910F91FF90D4
:1026B000EF90DF90CF900895CF9384E090E00E9458
:1026C0003F2FC82F81E290E00E943F2F982F8C2F40
:1026D000CF9108950F931F93CF93DF93C42FD0E032
:1026E000CC0FDD1F28E1629FC00DD11D112430E603
:1026F000839FC00DD11D1124CE0186960E943F2FCD
:10270000082F10E0102F0027CE0187960E943F2F40
:102710009801282BC901DF91CF911F910F91089546
:10272000462F843038F4743028F46C3018F4672F56
:102730000C946A1390E080E00895CF93DF930E9499
:102740009013EC0182389105A9F1D8F581339105F8
:1027500009F496C048F58932910509F48AC08A9730
:1027600009F495C0C11521E5D20708F0BCC0C11518
:1027700030E5D30708F014C1C83ED10508F09CC06D
:10278000C03ED10560F5C83AD10508F087C0C53A0A
:10279000D10508F0FDC0C130D10509F12097F9F04D
:1027A000C430D105E0F440C08533910509F45AC026
:1027B000C997C1F680911F02837089F0C0EED0E006
:1027C0000EC0833E910599F170F4803E910501F1B0
:1027D000823E910539F680911F0282FD21C0CE0113
:1027E000DF91CF910895863E910561F1873E910575
:1027F00071F1843E910509F0B5CF8091200281FFEF
:10280000EECF80911F02C7EED0E084FD0DC0E7CF70
:1028100080911F0280FD12C19091200290FFDFCFB6
:10282000C3EED0E084FFDBCFD0E0C0E0D8CF809112
:102830001F0282FD06C19091200290FDBFCF84FF50
:10284000CECFF2CF80911F0283FDDDCFC8CF809124
:102850001F0283FDF9C09091200291FFF0CFC4EEDA
:10286000D0E0BDCF80911F0285FFB9CFC9E2D0E093
:10287000B6CF80911F0285FFB2CFC5E3D0E0AFCFC6
:1028800080911F0286FFABCFCAE2D0E0A8CF809133
:102890001F0286FFA4CFC1E3D0E0A1CFCF3BD1057B
:1028A00018F6C85AD0E0CC0FDD1FC75BDE4F099089
:1028B000D881C02DD46493CFC11540E2D40758F419
:1028C000C11581E0D80708F08ACFC03FD10508F4D0
:1028D000ABCFD06584CFC11590E4D90708F4A4CF5D
:1028E000DF70D06A7CCFC11525E5D20700F5C11590
:1028F00034E5D30708F08AC0C11543E5D40708F0D2
:1029000071C0C11582E5D80708F467C0CE01837095
:10291000992721E030E002C0220F331F8A95E2F7A9
:10292000C695C69580E2C89FE001112452C0C1152A
:1029300099E5D907A8F4C11528E5D20708F06BC0BE
:10294000C11536E5D30708F06FCF8C2F0E94760AA9
:10295000C82FD0E0DC2FCC27CC27DF71D0623FCF4F
:10296000C1154AE5D40708F45BC0CE019056811525
:10297000904208F059CF8D2F8F710E94760A90E017
:10298000982F882788279F719C012C2BE901E6CF7F
:10299000C55AD0E0CA5BDE4FC881D0E0D0641FCFFB
:1029A000CE01E4E096958795EA95E1F783702C2FA8
:1029B00026952695237040E2249F90011124382B00
:1029C0008C2F8370C1E0D0E002C0CC0FDD1F8A9550
:1029D000E2F7C22BD32BDC6802CFDC2FCC27C16FF0
:1029E000D06AFDCECE018370992721E030E002C08D
:1029F000220F331F8A95E2F7C695C69590E2C99FCC
:102A0000E0011124C22BD32BDA68E9CEDC2FCC27CE
:102A1000C46FD06AE4CEDC2FCC27C06FD06ADFCE83
:102A20008C2F8F700E94760A34E0D695C7953A9520
:102A3000E1F7CF709C2FEC01D069D1CEC9E3D0E093
:102A4000CECEC2EED0E0CBCEC6EED0E0C8CEBF92A6
:102A5000CF92DF92EF92FF920F931F93CF93DF936A
:102A60008C01C0900D04D0900E04E0900F04F09003
:102A700010048091120290911302A0911402B0915F
:102A80001502C82AD92AEA2AFB2ACFE1D0E0BC2EB7
:102A9000D701C6010C2E04C0B695A79597958795CA
:102AA0000A94D2F780FD0EC0219788F7B12C8B2DA8
:102AB000DF91CF911F910F91FF90EF90DF90CF901A
:102AC000BF900895B8018C2F0E949D13019761F368
:102AD000EECFCF93DF93EC010E942715BE01DF916B
:102AE000CF910C949D130E946915292F2F709295F8
:102AF0009F7092509E3078F4E92FF0E0E757F04D48
:102B00000C94DC2B803F19F020F4883E20F481E007
:102B10000895843FE1F380E00895883EC0F3813F4B
:102B2000D1F7F5CF822F86958695869508956F9279
:102B30007F928F929F92AF92BF92CF92DF92EF924D
:102B4000FF920F931F93CF93DF9386EFC82E83E0FE
:102B5000D82E9EE9E92EF12CE701C056D1093601A5
:102B60001BC0F50185909490692DC8010E94532FD8
:102B7000682DC80101960E94532F82E0A80EB11C57
:102B80000E5F1F4FC017D10761F788E1680E711CF7
:102B90006896CE15DF0529F08E0108511109530101
:102BA000E0CF7E0180E6E80EF11C80E6C80ED11C65
:102BB0008EE1E81682E0F80679F6DF91CF911F9159
:102BC0000F91FF90EF90DF90CF90BF90AF909F90CC
:102BD0008F907F906F900895CF93DF93C6EAD1E0F6
:102BE00060E0CE010E94532F2196C11584E0D807E2
:102BF000B9F7DF91CF910895CF93C82F6FEF81116F
:102C000060E282E290E00E94532F6FEFC11161E118
:102C100083E290E00E94532F6FEFC11168E284E2DB
:102C200090E0CF910C94532F6CEE7EEF90E080E01B
:102C30000E94712F60E082E090E00E94532F60E0DC
:102C400083E090E00E94532F109212021092130220
:102C5000109214021092150260E084E090E00E944D
:102C6000532F60E081E290E00E94532F60E085E006
:102C700090E00E94532F60E086E090E00E94532F86
:102C80006FEF87E090E00E94532F40E050E0BA01E0
:102C900088E090E00E94652F60E08DE090E00E9467
:102CA000532F40E050E0BA0188E190E00E94652F88
:102CB00060E087E190E00E94532F40E050E0BA01CD
:102CC0008CE190E00E94652F60E080E290E00E943D
:102CD000532F40E050E0BA018FE090E00E94652F52
:102CE00040E050E0BA0183E190E00C94652FCF9270
:102CF000DF92EF92FF926B017C010E94D109B70134
:102D0000A60188E090E0FF90EF90DF90CF900C94C8
:102D1000652F80914302833018F48F5F80934302C4
:102D200060913F0270914002809141029091420275
:102D30000C94771680914302882319F08150809378
:102D4000430260913F027091400280914102909154
:102D500042020C9477165F926F927F928F929F92AD
:102D6000AF92BF92CF92DF92EF92FF920F931F9399
:102D7000CF93DF9300D00F92CDB7DEB7182F762E0A
:102D8000042F622E90913F0290FF29C0E92FE69513
:102D9000AE2FB0E0AF5DBE4F8C9180933D029E7F21
:102DA000923081F59E012F5F3F4F812F0E94E009F5
:102DB0004B8169818A810E949D0F1093400270921D
:102DC000410200934202662051F060913F027091EF
:102DD000400280914102909142020E9477160F902A
:102DE0000F900F90DF91CF911F910F91FF90EF9077
:102DF000DF90CF90BF90AF909F908F907F906F901B
:102E00005F900895823019F400914202D6CF863047
:102E100019F410914002D1CF8930D9F3893169F684
:102E2000E9518E2F8170582EE695F0E0EF50FD4F5E
:102E3000A590B490BB2484EAE82E81E0F82ED12C32
:102E4000C12C93E0892E912CC601B4010E94B42BB1
:102E5000812F511013C0860F9701402F672D0E94BC
:102E6000E009CA0CDB1C83E0E80EF11C8DEAE816D1
:102E700081E0F80649F70E94FC0D9FCF861BECCF3E
:102E8000EFE3F2E0438128E0421B08F440E021E058
:102E9000628181810C94AB16EFE3F2E0438128E07C
:102EA000420F08F44FEF21E0628181810C94AB1650
:102EB000EFE3F2E0628128E0621B08F460E021E0C9
:102EC000438181810C94AB16EFE3F2E0628128E04C
:102ED000620F08F46FEF21E0438181810C94AB16FF
:102EE000EFE3F2E0818121E04381628188500C941C
:102EF000AB16EFE3F2E0818121E043816281885FDC
:102F00000C94AB16EFE3F2E083E0808311828FEF45
:102F100082838383148260817181828193810C9486
:102F2000771610921002E8E9F1E086E0DF011D92C9
:102F30008A95E9F70C94BC081F93CF93DF93CDB724
:102F4000DEB7AA970FB6F894DEBF0FBECDBF8EE5F1
:102F500092E02091F100DC012D93CD01B2E08636A4
:102F60009B07B9F780915F02833009F471C0B8F410
:102F7000813009F448C0823009F4B2C08091E80081
:102F800083FF93C280915E0290915F029A3008F0B5
:102F90008CC2E92FF0E0E956F04D0C94DC2B8A301E
:102FA00009F48DC08B3009F470C0893039F78091F5
:102FB0005E02813219F7809162029091630200975C
:102FC00011F00297D9F68091E800877F8093E8009E
:102FD0008091E80082FF37C09091F3008091F20069
:102FE000029729F48091F1008B7F813021F4809148
:102FF000F100809352028091E8008B778093E80083
:103000000E941E05BBCF80915E02813A09F0B6CFC7
:103010008091E800877F8093E80080916202909120
:103020006302892B61F468E083E592E070E00E941E
:10303000D0058091E8008B778093E8009FCF60E017
:1030400090E080E0F3CF80910C048111C1CF96CF46
:1030500080915E02813A09F091CF80916202909155
:103060006302892B09F08ACF8091E800877F8093E3
:10307000E8008091E80080FFFCCF809118018093E8
:10308000F1008091E8008E77B9CF80915E028132A5
:1030900009F074CF8091620290916302892B09F04C
:1030A0006DCF8091E800877F8093E8000E941E0525
:1030B00080916002809318010E9491175FCF8091E8
:1030C0005E02813209F05ACF8091E800877F8093B9
:1030D000E8000E941E0580916102809351024ECF4C
:1030E00080915E02813A09F049CF8091E800877FA4
:1030F0008093E8008091E80080FFFCCF809151022E
:10310000BECF803899F0823809F0CFC18091620239
:103110008F70873008F0C9C18093E9008091EB007F
:1031200085FB882780F91092E90006C080915B0238
:1031300090915C02911182609091E800977F90934A
:10314000E8008093F1001092F1008091E8008E7702
:10315000A8C1882309F496C1823009F0A6C18091E4
:103160006002811199C1809162028F702FEF280F48
:10317000263008F09AC18093E9002091EB0020FFEF
:103180008BC1933031F48091EB0080628093EB002F
:1031900083C19091EB0090619093EB0021E030E0CF
:1031A00001C0220F8A95EAF72093EA001092EA0004
:1031B0008091EB008860EACF811177C110916002A5
:1031C0001F778091E3008078812B8093E3008091CA
:1031D000E800877F8093E8000E941E058091E80048
:1031E00080FFFCCF8091E30080688093E30082E061
:1031F000111183E080930C0458C18058823008F08C
:1032000054C120916002309161022C3DE3E03E0701
:10321000A1F583E08A838AE289834FB7F894DE01BF
:10322000139620E03EE051E2E32FF0E05093570088
:10323000E49120FF03C0E295EF703F5FEF708E2FA7
:1032400090E0EA30C0F0C7968D939D932F5F2431B4
:1032500059F74FBF8091E800877F8093E8006AE2CA
:1032600070E0CE0101960E94D0058091E8008B7736
:103270008093E8001AC1C096E7CF809162029091D6
:103280006302432F55274330510509F44AC078F5AE
:103290004130510509F485C08BE590E0E4EFF6E09C
:1032A0004230510509F001C12091E800277F2093A9
:1032B000E80020916402309165028217930708F4B8
:1032C0009C0140E02115310509F070C041116EC02C
:1032D0008091E80082FDC9CF80910C04882329F2F7
:1032E000853019F28091E80083FFF2CFBECF4132E2
:1032F000510509F447C04232510509F0D6C0833068
:10330000910508F0D2C0FC01EE0FFF1FE657FE4FFB
:103310000190F081E02D89579E4FDC018C9190E067
:103320001DC0332721303105E9F02115310579F031
:1033300022303105F9F02330310509F0B6C0E1E65D
:10334000F7E0E4918E2F90E0E1E6F7E007C0EBE9CB
:10335000F7E0E4918E2F90E0EBE9F7E0009709F4B5
:10336000A4C0A2CFEFE7F7E0E4918E2F90E0EFE763
:10337000F7E0F4CFE7E6F7E0E4918E2F90E0E7E6A0
:10338000F7E0ECCF8330910508F08FC0880F991FCC
:10339000FC01E057FE4F0190F081E02D89E090E0C4
:1033A00083CF82E190E0EFE4F7E07ECF80910C04E0
:1033B000882309F45ACF853009F457CF8091E8006B
:1033C00083FD53CF8091E80082FD82CF8091E80099
:1033D00080FF78CF9091F3008091F20021153105A4
:1033E00019F08830910550F041E0089709F040E06D
:1033F0008091E8008E778093E80064CF44914093F9
:10340000F1003196215031090196E8CF803809F05A
:103410004CC08091E800877F8093E80080915D0236
:103420008093F10092CE811140C010916002123061
:10343000E0F58091E800877F8093E80010935D02BB
:103440000E941E05112311F084E005C08091E30065
:1034500087FDFACF81E080930C0442E061EC81E0CB
:103460000E943D0542E261EC84E00E943D0542E29B
:1034700061EC82E00E943D0542E260EC83E00E9444
:103480003D0513C080916002813079F481E0933072
:1034900009F080E080935C021092E9008091E800DE
:1034A000877F8093E8000E941E058091E80083FFDB
:1034B0000AC08091E800877F8093E8008091EB004C
:1034C00080628093EB00AA960FB6F894DEBF0FBE21
:1034D000CDBFDF91CF911F91089590913F0290FF52
:1034E0003DC09170811129C0926090933F02662384
:1034F00051F060913F0270914002809141029091A1
:1035000042020E94771660913F02669570E04BE0A0
:1035100050E080E091E00E94742C892BA9F0109279
:103520003E0281E08093270220E0409142026091B8
:103530004102809140020C94AB16853210F09864E1
:10354000D4CF880F982BD1CF81E080933E020E9488
:10355000A2079093250280932402E3CF08958091DF
:103560003F028695815009F484E261E00C946D1A63
:1035700080913F0286958F5F853208F081E061E09F
:103580000C946D1A90913F0290FF07C09695981782
:1035900020F0961710F40C94B81A61E00C946D1A90
:1035A0004F925F926F927F928F929F92AF92BF9253
:1035B000CF92DF92EF92FF920F931F93CF93DF93FF
:1035C00000D000D00F92CDB7DEB77C01FC01838123
:1035D0009481892B31F08081918189238F3F09F07B
:1035E00087C60F900F900F900F900F90DF91CF91A3
:1035F0001F910F91FF90EF90DF90CF90BF90AF9011
:103600009F908F907F906F905F904F9008950E9451
:103610002715182F682F89819A810E944508698192
:103620007A81812F0E9490138C01F7019281992356
:1036300009F453C6980122513F452031310508F065
:1036400011C68FEF93E00E943F2F025146EAE42E0D
:10365000FF24F3948111C5CF01112FC01B82870174
:103660000F5F1F4FC7010E943F2F89831A82882353
:1036700009F4B7CF8150833078F532E0E30EF11CC6
:10368000C8010E943F2F8A83882309F4AACFCE0164
:1036900001966C01F6012081222309F35601FFEF08
:1036A000AF1ABF0AF60111812130C1F4812F0E94A7
:1036B000060D812F0E946F0916C0E114F4E0FF0689
:1036C00009F48FCFC7010E943F2F811101C0015023
:1036D0002FEFE21AF20AC0CF7801D9CF223041F49D
:1036E000812F0E94060D6501FFEFCF1ADF0AD2CFAE
:1036F0002330F9F230E0F901EA5EF94FB490F901B4
:10370000EA56FA4F0491F901EA5EFA4F1491002348
:1037100019F081EE0E94060D112319F086EE0E9429
:10372000060D8B2D0E94850D112319F086EE0E9447
:103730006F09002319F081EE0E946F095601D3CF63
:1037400081E00E94380903C081E00E94FD080F90CB
:103750000F900F900F900F90DF91CF911F910F91CD
:10376000FF90EF90DF90CF90BF90AF909F908F90A1
:103770007F906F905F904F900C94E10882E0E1CFD2
:10378000063F2CE5120709F476C008F470C027E262
:1037900045EE66EE073F8CE5180709F486C59923C8
:1037A00009F4B7C51092B3010230ECE51E0708F426
:1037B00045C10631FCE51F0738F098012B5F3C45F9
:1037C0002930310508F03AC10E945C139093200221
:1037D00080931F0200312CE5120709F4FEC008F0A7
:1037E00088C008308CE5180709F4E9C008F05AC011
:1037F0000430ECE51E0709F4D6C008F043C00230DF
:103800002CE5120709F4C9C080911F0282600330C1
:103810001C4509F4C5C060911F021091200284E08C
:1038200090E00E94532F612F81E290E00E94532F7D
:103830000F900F900F900F900F90DF91CF911F91ED
:103840000F91FF90EF90DF90CF90BF90AF909F903F
:103850008F907F906F905F904F900C94911727E21C
:1038600045EE65EE22C526E241EE60EE1EC527E27A
:1038700045EE64EE1AC526E241EE62EE16C528E278
:1038800041E0EFCF06308CE5180709F494C0809131
:103890001F02886007301C4508F482C080911F0217
:1038A00080627EC080911F028D7F0C30ECE51E0788
:1038B00009F476C070F480911F028C600A302CE508
:1038C000120709F46DC008F47EC080911F028E7F3C
:1038D00067C00E308CE5180709F47BC080911F0289
:1038E0008B7F0F301C4508F45BC080911F028F7ED8
:1038F00057C00C3FECE51E0709F459C030F5033101
:103900002CE5120709F471C078F401318CE5180731
:1039100009F467C002311C4509F07DCF0E94911760
:1039200080911F028F773CC00531ECE51E0709F43A
:1039300064C008F478C08091200281600B3F1C4570
:1039400009F069CF8093200266CF01153DE513078A
:1039500009F44FC088F4809120028D7F0E3F9CE5D2
:10396000190781F3809120028E7F0F3F1C4550F391
:10397000809120028360E6CF0230FDE51F0709F445
:103980005BC008F446C060E003301D4509F043CF3A
:103990008EE090E00E94532F3ECF80911F02816005
:1039A00080931F0238CF80911F028460F9CF8091ED
:1039B00020028260C7CF80911F028061F1CF809189
:1039C0001F028064EDCF0E94911780911F028068D2
:1039D000E7CF80911F02877FE3CF80911F028F7D09
:1039E000DFCF80911F028F7BDBCF80911F02837F0F
:1039F000D7CF809120028C7FA5CF80911F0282FBC0
:103A0000992790F921E0922790FB82F990FB83F9A6
:103A1000C7CF80912002982F909591708E7F892B2F
:103A200090FB81F98FCF0E94911790911F02892FEF
:103A300097FB87F98058B4CF61E0AACF809110023C
:103A40000631ECE51E0709F070C48A7A91E009F4AA
:103A500090E09093B40181111AC089E20E94040899
:103A60000F900F900F900F900F90DF91CF911F91BB
:103A70000F91FF90EF90DF90CF90BF90AF909F900D
:103A80008F907F906F905F904F900C94CA0785E362
:103A9000E5CF85E347C480913F0280FF2FC08E7F32
:103AA00080933F0260913F027091400280914102F9
:103AB000909142020E94771610923E02FFE728E39F
:103AC00031E0F15020403040E1F700C000000F909D
:103AD0000F900F900F900F90DF91CF911F910F914A
:103AE000FF90EF90DF90CF90BF90AF909F908F901E
:103AF0007F906F905F904F900C94FC0D816080934D
:103B00003F0261E086950F900F900F900F900F90FD
:103B1000DF91CF911F910F91FF90EF90DF90CF90A9
:103B2000BF90AF909F908F907F906F905F904F90DD
:103B30000C946D1A4FEA5AE168EB7AE10F900F90FE
:103B40000F900F900F90DF91CF911F910F91FF90E9
:103B5000EF90DF90CF90BF90AF909F908F907F902D
:103B60006F905F904F900C94CC0948EB5AE16FEA4C
:103B70007AE1E4CF40E757E169E777E1DFCF49E752
:103B800057E160E777E1DACF48E557E164E677E1AE
:103B9000D5CF44E657E168E577E1D0CF40E457E17F
:103BA0006CE477E1CBCF4CE457E160E477E1C6CF3A
:103BB0004AE956E169E876E1C1CF49E856E16AE9A8
:103BC00076E1BCCF61E081E09ECF65E082E00F90BE
:103BD0000F900F900F900F90DF91CF911F910F9149
:103BE000FF90EF90DF90CF90BF90AF909F908F901D
:103BF0007F906F905F904F900C94C21A68E086E0BF
:103C0000E6CF6EE089E0E3CF64E18FE0E0CF67E1EB
:103C100085E1DDCF61E088E176CF62E289E1D7CF4F
:103C200061E083E270CF0D3D8CE5180709F47FC099
:103C300008F048C00115FCE51F0709F462C00C3DFF
:103C40001C4509F471C0F70100811181992309F421
:103C500074C0C8010E942715D82E682FC8010E9481
:103C60004508B8018D2D0E949D138C01882EF70107
:103C7000A580A2943FE0A322D280D11010920F021F
:103C800080910D02877079F0DD2069F080E2800F6D
:103C9000883048F082E00E94200980910D028770F0
:103CA000CC24C3948111C12CB12EB2942FE0B22246
:103CB000FBE0FB1508F47BC0EB2DF0E0EF55F04D79
:103CC0000C94DC2B0E3D3CE51307A9F10F3D1C4580
:103CD00009F0B9CF0F900F900F900F900F90DF91D8
:103CE000CF911F910F91FF90EF90DF90CF90BF90F9
:103CF000AF909F908F907F906F905F904F900C94BB
:103D000014160E9491179FE7EAE1F6E09150E04017
:103D1000F040E1F700C0000087E797E790930108C3
:103D2000809300080E946707109217015ACC82E026
:103D30008093170156CC83E0FBCFC8010E941D0879
:103D4000D82E8FCF212F2F70A22E107F19F0A29482
:103D500090EFA922DD20C9F0AA2069F080E2800F4F
:103D6000883010F081100BC080911002A82AA09218
:103D700010020E94CA07802F0E94060D18C0809171
:103D80000F02A82AA0920F02F4CF802F0E946F0981
:103D9000AA2069F0A094005E083010F081103BC0AA
:103DA00080911002A822A09210020E94CA07EB2D57
:103DB000E850FF0B349710F40E946309CC2009F4FB
:103DC00010CC80910D0280FD0CCCF70112828595FC
:103DD000859585950E943809C7010E94D01A809167
:103DE0000D028595859585950F900F900F900F90FA
:103DF0000F90DF91CF911F910F91FF90EF90DF9087
:103E0000CF90BF90AF909F908F907F906F905F907A
:103E10004F900C94FD0880910F02A822A0920F02EF
:103E2000C4CF312F3F70932E107F103219F092942F
:103E300080EF9822882071F091E0891661F1DD20F1
:103E4000B9F1AA2071F1F701858180FF94CF8F70BD
:103E5000858327C0DD2091F090911102892D892B57
:103E6000A11003C00E948608A2CFE1E0AE12FACFF3
:103E7000981709F49CCF8093110299CFA11006C026
:103E80000E94C407892D0E947B0891CFF1E0AF16F4
:103E900009F48DCFF5CFDD2031F025E02A1508F4A7
:103EA00086CF892DDFCF34E03A1508F480CFEACFF2
:103EB000AA2041F3093349F4FFEF23EF31E0F15039
:103EC00020403040E1F700C00000802F0E946F09C1
:103ED0006ECF812F86958695837061F0813009F0D1
:103EE00066CFC8019370D11002C090E080E00E94BC
:103EF00090085DCFC8019370D11002C090E080E0BF
:103F00000E94A60854CFDD2009F1053F99F0063F35
:103F1000B9F0043F49F48091B5019091B6018160F8
:103F20009093B6018093B501802F0E94FF060E94F6
:103F3000AE073DCF8091B5019091B6018260F0CF80
:103F40008091B5019091B6018460EACF053F89F078
:103F5000063FA9F0043F49F48091B5019091B60164
:103F60008E7F9093B6018093B501802F0E943E060C
:103F7000DECF8091B5019091B6018D7FF2CF809117
:103F8000B5019091B6018B7FECCF812F837009F042
:103F900066C0D1100CCF802F829586958770880FD0
:103FA000880F602F6F70462E512C712C612C082EBB
:103FB00004C0440C551C661C771C0A94D2F740E0E0
:103FC00050E0BA0104FF0FC04FE050E060E070E045
:103FD00004C0440F551F661F771F8A95D2F740957E
:103FE000509560957095812F869586958370823067
:103FF00019F1D8F4009112021091130220911402C9
:1040000030911502813069F04429552966297729B4
:10401000CB01BA0160237123822393230E945909A3
:10402000C6CE402A512A622A732ACB01BA016429DA
:10403000752986299729F2CF442955296629772998
:104040000091120210911302209114023091150276
:10405000CB01BA016027712782279327DFCF86958E
:10406000DD2011F0812F8170882309F4A0CE802FEC
:10407000829586958770880F880F602F6F70462E07
:10408000512C712C612C082E04C0440C551C661C4C
:10409000771C0A94D2F740E050E0BA0104FF0FC049
:1040A0004FE050E060E070E004C0440F551F661F11
:1040B000771F8A95D2F74095509560957095812F1E
:1040C000869586958370823019F1D8F400910D049D
:1040D00010910E0420910F0430911004813069F08A
:1040E0004429552966297729CB01BA016023712318
:1040F000822393230E94D7085ACE402A512A622A4B
:10410000732ACB01BA016429752986299729F2CF30
:10411000442955296629772900910D0410910E0430
:1041200020910F0430911004CB01BA016027712750
:1041300082279327DFCF1F70DD2029F0812F0E9477
:104140003809802F8FCE802F0E947B08812F0E94FC
:10415000FD082DCE802F92EF891609F450C09815D6
:1041600078F0E0EF8E1619F1F1EF8F1609F43FC0E9
:10417000DD2009F467C0A110FECD812F8F713CC0F6
:1041800023EF821609F440C034EF8312F1CFDD2013
:1041900009F44DC01F71812F0E943809E8E01E9F6D
:1041A000C0011124836080930D02812F25C0DD2082
:1041B000C9F084E08A1508F4FACD1F7161E070E05F
:1041C00080E090E004C0660F771F881F991F1A9542
:1041D000D2F700910D0410910E0420910F0430913C
:1041E0001004A4CF95E09A1508F4E1CDE6CF812F15
:1041F0008F71DD2009F4ABCF0E943809D8CD812F13
:104200008F71DD20C9F3A3CF60E070E0CB01DD202A
:1042100009F470CF1F7161E070E080E090E004C0AD
:10422000660F771F881F991F1A95D2F763CF81E019
:104230000E942009F1E0FA1508F0B9CD82E00E9451
:104240002009B5CDAA2059F0893309F03ECE2FEFD1
:1042500033EF81E0215030408040E1F734CE812FB0
:104260008F7175CF0031FFE51F0709F469CA01316D
:104270002FE5120709F482CA043F2CE5120709F45E
:10428000F2CA08F07DCA083D8CE5180709F4E7CAB0
:10429000093DECE51E0709F4F2CA073DFCE51F07DE
:1042A00009F07DCA26E241EE61EEC7010F900F9042
:1042B0000F900F900F90DF91CF911F910F91FF9072
:1042C000EF90DF90CF90BF90AF909F908F907F90B6
:1042D0006F905F904F900C94980D00313FE513075D
:1042E00009F432CA01318FE5180731F682E02DCA90
:1042F00085E0DE01119601900D928A95E1F7F701B4
:10430000228189819A81211182C90E941D08182F5A
:1043100086C906311C4509F096CC8091B401811103
:10432000B8CB89E20E94F7079BCB8272F801E25C6E
:10433000FC45E431F10508F076CCE355F04D0C94E2
:10434000DC2B1F93CF93DF938091BC01807FC1F45E
:104350008091B9018823A1F08091EE01C091BD0147
:104360006091B7017091B8014091BA015091BB01C1
:10437000D62FD723DA01A095B09516E0C81304C054
:10438000DF91CF911F91089590E04115510511F0F3
:10439000DF3F31F401968770F1CF2A0F3B1F17C022
:1043A000189FF001199FF00D1124E254FE4F218156
:1043B0002713F0CF20812613EDCF22812111EACFE0
:1043C000238134812417350740F3241B350B2A3F02
:1043D000310500F72091BC012F7020612093BC01B2
:1043E00026E0289FF001299FF00D1124ED53FE4F88
:1043F00080818F708061808387EB91E00E94D01A6A
:10440000DF91CF911F910C947108BF92CF92DF92F0
:10441000EF92FF920F931F93CF93DF93CDB7DEB749
:1044200061970FB6F894DEBF0FBECDBF8C0185E05B
:10443000F801DE011D9601900D928A95E1F7D801F1
:104440002C9111963C9111971296EC9012978091B5
:10445000BA019091BB01009709F463C14091B70183
:104460005091B801642F65236F3F09F45AC1139628
:10447000CD90DC90B090B901BB2009F413C1C816EF
:10448000D906C0F1F601E81BF90BCF01FF24F39424
:104490008A3F910508F0F12C8091BC01982F907F04
:1044A000FF2009F4C1C091117DC0FE2C531327C019
:1044B000421325C0E11023C08F7080618093BC013E
:1044C00087EB91E00E94D01A8091BC01D80115962B
:1044D0008C938F2D61960FB6F894DEBF0FBECDBFC3
:1044E000DF91CF911F910F91FF90EF90DF90CF90D0
:1044F000BF900895809590958C0D9D1DC7CFCD28B8
:1045000029F0822F83238F3F09F029C180E0B82F43
:10451000B170DB2E80FF3CC08091EE014091BD0167
:1045200056E0841315C02D873E878D859E850E9499
:104530006915292F22952F702230F0F0243018F5BC
:104540009F70F1F0F8019581907FD1F4D12C1EC0BD
:1045500090E0589FF001599FF00D1124E254FE4F56
:104560006181361306C06081261303C06281E612A2
:104570000FC001968770D5CF9F7011F0882331F35B
:10458000805E883018F3C8010E94D01AFD2CA1CF9C
:10459000EE2009F49ECF8091BC0181608093BC0124
:1045A000F12C97CF531313C0421311C0E1100FC069
:1045B000D80115968C93C8010E94D01A86E0F801A4
:1045C000A7EBB1E001900D928A95E1F782CF2D879C
:1045D0003E878D859E850E947315882309F1EE2004
:1045E000F9F08091BC01803270F02091B7013091D8
:1045F000B80138872F831986DB86CA868C87CE015F
:1046000007960E94D01A86E0F801A7EBB1E001906E
:104610000D928A95E1F70E94A121FF24F39459CFCE
:10462000C8010E94D01AF9CF91110CC087EB91E01C
:104630000E94D01A86E0E7EBF1E0DF011D928A9537
:10464000E9F747CF531312C0421310C0E1100EC058
:10465000F8018583C8010E94D01AE7EBF1E086E0FB
:10466000DF011D928A95E9F7FB2C33CF2D873E871A
:104670008D859E850E947315882391F2EE2081F22C
:104680008091BC01803208F4BECF2091B7013091F7
:10469000B8013A8329831B82DD82CC828E83CE01CE
:1046A0000196AFCFC816D90640F0C81AD90ABAEF9A
:1046B000CB16D10448F0F12CBDCF809590958C0D90
:1046C0009D1D8A3F9105B8F7FE2CEE2009F4A8CF76
:1046D000531316C0421314C08091BC0180FD6ECFED
:1046E000982F907F09F46ACFF8018583903F09F4F1
:1046F00062CF982F907F905F8F70892B85835BCFDF
:104700002D873E878D859E850E94731581117BCFF5
:104710008091BC0181608093BC01C8010E94D01AC5
:10472000D8CEEE2009F47CCF2D873E878D859E85DF
:104730000E947315F82E882309F472CF86E0F801E1
:10474000A7EBB1E001900D928A95E1F78091B70156
:104750009091B8010E9469150E94A121BACE81E012
:104760008E25D5CE1F93CF93DF93CDB7DEB7679756
:104770000FB6F894DEBF0FBECDBF4B8B5C8B6D8B3D
:104780007E8B8F8B1A8A198A85E0FE017396DE0173
:104790001D9601900D928A95E1F786E0FE013D9607
:1047A000DE01179601900D928A95E1F7CE010796EA
:1047B0000E940522811112C086E0FE013796DE01BB
:1047C000119601900D928A95E1F78A859B85892B38
:1047D00029F08F81988589238F3FB1F516E080916C
:1047E000EE019091BD0189131DC067960FB6F89434
:1047F000DEBF0FBECDBFDF91CF911F91089596E030
:10480000929FD001939FB00D1124A254BE4FFE0180
:10481000319601900D929A95E1F78093BD010E9427
:104820007108DCCF819FC001112482549E4F0E94E9
:1048300005228823D1F28091EE0190E001968770E5
:1048400099278093EE01CBCF2091BD0130E0C901C3
:104850000196877099274091EE014817190679F65D
:104860000E9491171092BD011092EE0186E0E7EBD5
:10487000F1E0DF011D928A95E9F7B0CF10920404B0
:1048800010920504E6E0F4E01482158208951F9268
:104890000F920FB60F9211242F933F934F935F9374
:1048A0006F937F938F939F93AF93BF93CF93DF9338
:1048B000EF93FF93D091E900DF708091EC00C82F57
:1048C000C17080FDC0E81092E9008091F000877F00
:1048D0008093F00078940E949C171092E9008091D8
:1048E000F00088608093F000CD2BCF70C093E9007A
:1048F000FF91EF91DF91CF91BF91AF919F918F91F8
:104900007F916F915F914F913F912F910F900FBECB
:104910000F901F9018951F920F920FB60F921124AF
:104920002F933F934F935F936F937F938F939F93B7
:10493000AF93BF93EF93FF938091E10082FF09C093
:104940008091E20082FF05C08091E1008B7F80931F
:10495000E1008091DA0080FF23C08091D80080FFC1
:104960001FC08091DA008E7F8093DA008091D90099
:1049700019BC80FF9CC082E089BD09B400FEFDCF58
:1049800081E080930C0480915002811109C00E9443
:104990007C040E946F058091E20084608093E200B5
:1049A0008091E10080FF17C08091E20080FF13C07A
:1049B0008091E2008E7F8093E2008091E20080612E
:1049C0008093E2008091D80080628093D80019BC67
:1049D00085E080930C048091E10084FF2CC08091DD
:1049E000E20084FF28C019BC82E089BD89B5982FF8
:1049F000917080FFFBCF8091D8008F7D8093D8008D
:104A00008091E1008F7E8093E1008091E2008F7EB3
:104A10008093E2008091E20081608093E2008091C7
:104A20005D02882309F448C084E080930C040E944E
:104A300091170E9463098091E10083FF27C0809154
:104A4000E20083FF23C08091E100877F8093E10033
:104A500082E080930C0410925D028091E1008E7FD1
:104A60008093E1008091E2008E7F8093E20080914C
:104A7000E20080618093E20042E060E080E00E941A
:104A80003D058091F00088608093F000FF91EF91E8
:104A9000BF91AF919F918F917F916F915F914F9156
:104AA0003F912F910F900FBE0F901F90189510926D
:104AB0000C041092500274CF8091E30087FD93E0C4
:104AC00090930C04B4CFCDB7DEB7CC58D1090FB654
:104AD000F894DEBF0FBECDBF84B7877F84BF0FB60B
:104AE000F894A8958091600088618093600010928E
:104AF00060000FBE80E890E00FB6F89480936100EC
:104B0000909361000FBE85B7806885BF85B78068C8
:104B100085BF0E947C040E946F058091E200846042
:104B20008093E200789480910C048823A1F0109186
:104B3000E9001F709091EC00892F817090FD80E852
:104B4000182B1092E9008091E80083FD0E949C17C9
:104B50001F701093E90082E084BD93E095BD9DE74E
:104B600097BD80936E00A7E7B1E061E070E08D91A2
:104B7000E82FE295EF70F0E041A18F709B0101C03A
:104B8000220F8A95EAF7922F9095942391A382A100
:104B9000822B82A321E0A338B20749F7A3E8B1E052
:104BA00061E070E08D91E82FE295EF70F0E041A1B7
:104BB0008F709B0101C0220F8A95EAF7922F909582
:104BC000942391A382A1822B82A331E0A738B3075B
:104BD00049F7109218021092170210924502109293
:104BE000440210921A021092190210924702109277
:104BF000460210921C0210921B021092490210925F
:104C0000480210921E0210921D0210924B02109246
:104C10004A020E9433108FE19EE40197F1F700C031
:104C200000000E9433108091440280FF0BC080E09E
:104C30000E94FC156FEF7FEF90E080E00E94712FE3
:104C40000E94670790E080E00E944D2F8C3E9E4FAF
:104C500011F00E94141682E290E00E943F2F8032F1
:104C600009F013C583E290E00E943F2F813109F0E3
:104C70000CC584E290E00E943F2F883209F005C500
:104C800090E080E00E944D2F8C3E9E4F11F00E94DC
:104C9000141682E090E00E943F2F809334020E941D
:104CA0005C139093200280931F0283E090E00E94A7
:104CB0003F2F682F70E090E080E00E9459098091BA
:104CC0002102811136C090E080E00E944D2F8C3E81
:104CD0009E4F21F00E9414160E94821788E090E0F7
:104CE0000E94472F60933F027093400280934102DD
:104CF000909342026E7F71F40E94821788E090E0E8
:104D00000E94472F60933F027093400280934102BC
:104D1000909342020E94D10910923E0280913F027C
:104D200080FF04C060E086950E946D1A81E0809348
:104D300021028DE091E0909323028093220276E994
:104D4000E72E76E0F72E0E943310A4E4B2E0E5E30C
:104D5000F2E010E000E0302F8D919D914191519152
:104D60004817590709F454C120E0CC24C394D12C2E
:104D700048275927BA016C217D21672B09F442C1CC
:104D8000CF57DF4F2883C158D040CE57DF4F3883ED
:104D9000C258D0409C012C213D2191E0232B09F4E5
:104DA00090E0CD57DF4F9883C358D0400E94A207B0
:104DB0008160782FCC57DF4F99838883C458D040C7
:104DC000CF57DF4F4881C158D040CE57DF4F588171
:104DD000C258D040CD57DF4F6881C358D040CB5721
:104DE000DF4F8881C558D0400E94B223000F111FA9
:104DF000F801EB5CFD4F80819181C826D926D182D4
:104E0000C08280913E02882309F441C080913D0216
:104E1000E0913F02E695E81BE0932602823009F01C
:104E20002EC1F0E0EC55F94FE4910E2F10E08FE029
:104E3000C82E80E1D82E80912702882389F0109215
:104E400027020E94A207980120953095820F931F98
:104E50009093250280932402109229021092280236
:104E600080912402909125020E9478078017910773
:104E700070F0E0912402F09125020E0F1F1F109395
:104E800025020093240284E292E0F60109958091C4
:104E90003102909132020E947807AC019091300269
:104EA0002CE231E0992311F022E330E0421753075E
:104EB00078F020912C02D0902D0200912E021091BA
:104EC0002F02211135C1802F8D29812B09F0F3C3C9
:104ED0000E94630990913302891721F00E946309AF
:104EE0008093330280916A02811186C180916902A8
:104EF00081112EC0109268026E987698249A2C9A8E
:104F000080E58093660291E0909367022FB7F89452
:104F1000289A209A8CB580618CBD8CB580648CBD3C
:104F2000219A229A2FBF549A5C9A5C98EFE1FEE492
:104F30003197F1F700C000005C9AFFEF29E638E1F5
:104F4000F15020403040E1F700C00000909369022A
:104F500010926A0208EA16E034EBC32E36E0D32E34
:104F600042E050E0B801CE0185579F4F0E944A2C85
:104F700040E850E0BE016F5F7F4FC557DF4F88812B
:104F80009981CB58D0400E948E0C882371F00E5F1F
:104F90001F4FC016D10621F781E080936A020E945C
:104FA000A207909373028093720280916A0281112A
:104FB00023C180910C04843009F0C5CE83E0809336
:104FC000E9008091E80082FFBECE8091E80090E089
:104FD00085FF06C00E949B04882309F495C191E0D7
:104FE0008091E8008B778093E800992309F4ABCE99
:104FF000E981E150E33108F0FAC1F0E0EF53F04D00
:105000000C94DC2B2F5FCC0CDD1C2C3009F0B2CEC5
:105010000F5F1F4F0430110509F09DCE8FEFCA5767
:10502000DF4F8883C658D040C957DF4F8883C758A1
:10503000D040C857DF4F1882C858D0400E94A207FE
:105040008160782FC757DF4F99838883C958D04034
:10505000CA57DF4F4881C658D040C957DF4F5881E3
:10506000C758D040C857DF4F6881C858D040C6578E
:10507000DF4F8881CA58D0400E94B223C2CE86300A
:1050800059F4F0E0EF55F94FE4910E2F10E0B3E240
:10509000CB2EB0E1DB2ECFCE893061F4E695F0E087
:1050A000E256F94FE4910E2F10E0AAE7CA2EAEE0C7
:1050B000DA2EC1CE8F3061F4E695F0E0E556F94F77
:1050C000E4910E2F10E0F4EACF2EFEE0DF2EB3CEF7
:1050D000853159F4F0E0E856F94FE4910E2F10E0D5
:1050E000E2E1CE2EEFE0DE2EA6CE08EE13E059E68A
:1050F000C52E5FE0D52E883109F49DCE833241F470
:10510000F7010591149176EBC72E7FE0D72E93CE51
:1051100004EF11E062E4C62E6EE0D62E843209F46C
:105120008ACE00ED17E04AE3C42E46E0D42E83CEAB
:105130009F3F19F09F5F90933002121624F40E9453
:10514000DF0680932C0280912C0287FF05C00E940D
:10515000DF06819580932C021D1424F40E94DF0643
:1051600080932D0280912D0287FF05C00E94DF06EB
:10517000819580932D0230912C023323A1F0209150
:105180002D02222381F045EB3403C0011124992321
:1051900059F190932C0245EB240390011124332301
:1051A00039F130932D02101624F40E94BD0680932D
:1051B0002E0280912E0287FF05C00E94BD068195B8
:1051C00080932E02111624F40E94BD0680932F02B4
:1051D00080912F0287FF05C00E94BD0681958093B4
:1051E0002F020E94AE0774CE81E080932C02D3CFB1
:1051F00081E080932D02D7CF81E00E94060B8AE0E8
:1052000090E00E940C1180917202909173020E94B2
:105210007807893E9340C8F180916B02811117C0D5
:1052200040E350E0BE016F5F7F4F81EE96E00E9449
:105230008E0C882349F040E350E0BE016F5F7F4F42
:105240008EEC96E00E948E0C81E080936B020E94AF
:10525000A207909373028093720240E350E0BE0174
:105260006F5F7F4F80EC96E00E948E0C882369F080
:10527000CE0101960E942C2C21E0892B09F420E01C
:105280008091680228132093680280916C029091AB
:105290006D020E9478078131974208F48ACE90917E
:1052A0000A0480910B04981384CE0E94A207909365
:1052B0006D0280936C02EBEBF6E0E49185E880935D
:1052C0007A008E2F8072806880937B00EF71E0649B
:1052D000E0937C0080917A00806480937A008091D2
:1052E0007A0086FDFCCF8091780090917900092E9C
:1052F000000CAA0BBB0B80936E0290936F02A093DD
:105300007002B093710255CE00E210E09E012F5F53
:105310003F4F69018091E80085FD0AC08091E80057
:105320008B778093E8000E949B04882399F357CEE3
:105330008091F100F60181936F010150110951F73D
:105340004ECE1A8289E08B833FC08A81823009F475
:10535000A9C18330A9F0813009F049C02FB7F89472
:1053600060914C0270914D0280914E0290914F02DB
:105370002FBF0E94E22B6B837C838D839E8324C08E
:1053800080914402909145029827892798279C8311
:105390008B8380914602909147029827892798270E
:1053A0009E838D8380914802909149029827892796
:1053B000982798878F8380914A0290914B02982773
:1053C000892798279A878987CE0101960E94F6043B
:1053D000BACC8A81823059F46B817C818D819E8127
:1053E0000E94E22B85E290E00E94532FEDCF8FEFD9
:1053F0008983EACF4C816B818A810E946A13982746
:10540000892798279E838D83DFCFCD80DE80DC24A3
:10541000CD24DC248A810B81F8E10F9F80011124C7
:1054200020E6829F000D111D11248C8190E0880FD1
:10543000991F080F191F6D2DC80186960E94532FC2
:105440006C2DC8018796D0CF0E949715BDCF8A8159
:105450008138C1F060F4803809F0B6CF20E04B818C
:1054600060914102809140020E94AB16ADCF82381C
:1054700059F1833809F0A8CF20E0409142026C81B5
:105480008B81F2CF60E08B810E946D1A9B818091AD
:105490003F02911111C08E7F80933F0210923E0215
:1054A0003FE748E381E0315040408040E1F700C0F1
:1054B00000000E94FC0D88CF816080933F0260E075
:1054C00086950E946D1A80CF8B81809343027CCF9A
:1054D0008A81813899F030F4803809F075CF809155
:1054E000420231CF823891F0833809F06DCF80913C
:1054F00040028B83809141028C8366CF80913F0272
:1055000080FF02C086951FCF80E01DCF80914302AF
:105510001ACF60913F0270914002809141029091B8
:1055200042020E94771650CF80E18A834DCF82E0FD
:105530008A838AE508CF0A811B811027012710275B
:10554000FE0131966F01AC809F012A0D311D59017A
:10555000C8018A559E4FAC14BD0409F435CF0A35F5
:1055600032E0130750F40E943F2FF60184830F5F4F
:105570001F4FFFEFCF1ADF0AEBCFF6011482F7CFF0
:105580000A811B811027012710279E012F5F3F4FA3
:105590005901CC80C00ED12ED11CC8018A559E4F16
:1055A000C016D10609F410CF0A3532E0130720F4F3
:1055B000F50164810E94532FFFEFAF1ABF0A0F5FFE
:1055C0001F4FEBCF0E94EC15FFCE84E0AECF0A81D7
:1055D0001B811027012710279E012F5F3F4F690174
:1055E000AC80C9018A0D911D5C01C8018696CA1460
:1055F000DB0409F4E9CE0038E1E01E0750F40E9414
:105600003F2FF60184830F5F1F4FFFEFCF1ADF0A92
:10561000ECCFF6011482F7CF0A811B8110270127F6
:1056200010279E012F5F3F4F5901CC80C00ED12E15
:10563000D11CC8018696C016D10609F4C5CE003823
:1056400031E0130720F4F50164810E94532FFFEF2E
:10565000AF1ABF0A0F5F1F4FECCF80E00E94FC150E
:105660006FEF7FEF90E080E00E94712FADCECE0112
:1056700001960E94F6042FEF30E742E021503040BF
:105680004040E1F700C00000DBCA60E085E290E046
:105690000E94532F0E9497150E94EC1581E00E94F2
:1056A000FC15EECA85E290E00E943F2F1B821C820F
:1056B0001D828E8389CE9F3F09F03CCD4DCD7894DD
:1056C0001F921FB61F9211248F939F93AF93BF9386
:1056D00080914C0290914D02A0914E02B0914F02E8
:1056E0000196A11DB11D80934C0290934D02A09391
:1056F0004E02B0934F02BF91AF919F918F911F9037
:105700001FBE1F9018951F921FB61F9211248F93D2
:105710009F93AF93BF9380914C0290914D02A091C3
:105720004E02B0914F024196A11DB11D80934C02D3
:1057300090934D02A0934E02B0934F02BF91AF9150
:105740009F918F911F901FBE1F90189587FB082E69
:10575000062687FD819567FD61950E94E92B0EF471
:10576000919507FC81950895AA1BBB1B51E107C0C9
:10577000AA1FBB1FA617B70710F0A61BB70B881FE1
:10578000991F5A95A9F780959095BC01CD01089570
:1057900097FB072E16F4009407D077FD09D00E94DE
:1057A000B42B07FC05D03EF4909581959F4F08954A
:1057B000709561957F4F0895EE0FFF1F0590F4914E
:1057C000E02D099469279627692778278727782766
:1057D0000895991B79E004C0991F961708F0961B4D
:1057E000881F7A95C9F7809508952F923F924F921E
:1057F0005F926F927F928F929F92AF92BF92CF9261
:10580000DF92EF92FF920F931F93CF93DF93CDB769
:10581000DEB7CA1BDB0B0FB6F894DEBF0FBECDBFE1
:1058200009942A88398848885F846E847D848C84B2
:105830009B84AA84B984C884DF80EE80FD800C81BB
:105840001B81AA81B981CE0FD11D0FB6F894DEBF9E
:105850000FBECDBFED010895FC0188279927E8947C
:1058600021912032E9F3293010F02E30C8F32B3289
:1058700041F02D3239F4689404C00E946C2C820FE0
:10588000911D219120532A30C0F31EF490958195EB
:105890009F4F0895FB01DC0102C005900D9241501D
:1058A0005040D8F70895FB01DC018D9105908019D7
:1058B0000110D9F3990B0895FB01DC0105900D92BD
:1058C0000020E1F70895FC0105900020E9F780959C
:1058D00090958E0F9F1F08957AE0979F902D879F38
:1058E000802D910D11240895FC014150504030F05D
:1058F00001900616D1F73197CF010895882799278F
:105900000895FB01DC0102C001900D92415050400E
:10591000D8F70895FB01DC010D900020E9F71197FD
:1059200001900D920020E1F70895FC0181E090E0E4
:105930000190061609F4CF010020D1F701970895D0
:10594000AEE0B0E0E6EAFCE20C94032C0D891E897F
:105950008F89988D26E02C831A83098397FF02C0D4
:1059600080E090E801979E838D83AE01455E5F4F96
:10597000698D7A8DCE0101960E94D02C4D815E8179
:1059800057FD0AC02F813885421753070CF49A013E
:10599000020F131FF80110822E96E4E00C941F2CC6
:1059A000ABE0B0E0E6EDFCE20C94F52B7C013B01B2
:1059B0008A01FC0117821682838181FFB9C19AE0B6
:1059C000292ECE0101965C01F7019381F30193FD2D
:1059D000859193FF81913F01882309F446C1853267
:1059E00039F493FD859193FF81913F01853229F42C
:1059F000B70190E00E94B12EE7CF912C412C512CA1
:105A0000FFE1F51538F08B3209F188F4803201F1AD
:105A1000833221F157FC3AC020ED280F2A3040F59F
:105A200056FE1FC0929C200D1124922E06C08D326E
:105A300091F0803379F7689450F8F30193FD8591E4
:105A400093FF81913F018111DBCF20C0689451F811
:105A5000689452F8F2CF689453F8EFCF689454F8F2
:105A6000ECCF429C200D1124422E689455F8E5CFCE
:105A70008E3229F456FCF9C0689456F8DECF8C3685
:105A800019F4689457F8D9CF8836B9F2982F9F7DCA
:105A900095549330C0F08336A1F18337C1F183353B
:105AA00009F05BC0F801C190D1908F01692D70E0C1
:105AB00056FC02C06FEF7FEFC6010E949B2E4C0187
:105AC000689457F80AC00C5F1F4F2FE3298388247E
:105AD0008394912C6501E89457F853FC04C0481452
